:020000040800F2
:1000000018070020890100087F1300083F1000082E
:100010007D1300088F020008BF14000800000000D4
:100020000000000000000000000000008313000832
:100030002503000800000000811300088513000854
:10004000A3010008A3010008A3010008A301000800
:10005000A3010008A3010008A3010008A3010008F0
:10006000A3010008A3010008A3010008A3010008E0
:10007000A3010008A3010008A3010008A3010008D0
:10008000A3010008A3010008A3010008A3010008C0
:10009000A3010008A3010008A3010008A3010008B0
:1000A000A3010008A3010008A3010008A3010008A0
:1000B000A3010008A3010008A3010008A301000890
:1000C000A3010008A3010008A3010008A301000880
:1000D000A3010008A3010008A3010008A301000870
:1000E000A3010008A3010008A301000800F002F822
:1000F00000F03AF80AA090E8000C82448344AAF188
:100100000107DA4501D100F02FF8AFF2090EBAE885
:100110000F0013F0010F18BFFB1A43F0010318473B
:10012000A8170000C8170000103A24BF78C878C18B
:10013000FAD8520724BF30C830C144BF04680C60ED
:10014000704700000023002400250026103A28BF35
:1001500078C1FBD8520728BF30C148BF0B60704739
:100160001FB51FBD10B510BD00F058F81146FFF7C0
:10017000F7FF01F057FA00F076F803B4FFF7F2FF4B
:1001800003BC00F07DF8000009488047094800479B
:10019000FEE7FEE7FEE7FEE7FEE7FEE7FEE7FEE737
:1001A000FEE7FEE704480549054A064B7047000094
:1001B000E7130008ED0000081801002018070020D0
:1001C00018030020180300204FF0000200B513466A
:1001D00094469646203922BFA0E80C50A0E80C5067
:1001E000B1F12001BFF4F7AF090728BFA0E80C5018
:1001F00048BF0CC05DF804EB890028BF40F8042B11
:1002000008BF704748BF20F8022B11F0804F18BF7D
:1002100000F8012B7047704770477047754600F033
:100220002BF8AE4605006946534620F00700854688
:1002300018B020B5FFF7B6FFBDE820404FF000062C
:100240004FF000074FF000084FF0000B21F00701BE
:10025000AC46ACE8C009ACE8C009ACE8C009ACE801
:10026000C0098D46704710B50446AFF300802046A4
:10027000BDE81040FFF781BF00487047B80000207C
:1002800001491820ABBEFEE7260002007047FEE7DA
:1002900010B501F0FFFA00220121054800F04BF9EA
:1002A00044F2506000F028F8BDE8104001F0E4BAD4
:1002B000000801400E48016821F08071016001686A
:1002C00041F0807101600B48016821F0010101607B
:1002D000016841F0010101600021416000BF00BFE1
:1002E00000BF406808B1002070470120704700003F
:1002F000FCED00E0001000E031B5084D6C6800F046
:10030000CDFB0749B0FBF1F00099484300906868C5
:100310000099001B8842FAD338BD0000001000E0AD
:1003200040420F007047000070B5044600F008F925
:100330000546601C02D004480078044400F000F92F
:10034000401BA042FAD370BD0C0000202DE9F84FED
:10035000DFF8B891002409F1040A0AF1040B2346DE
:100360000F270BF1040EC9E00125A5402A40AA423F
:100370007DD1674ED1F804C0ACEB0608B44532D04D
:1003800014DCBCF1030F3AD009DCBCF1000F2AD019
:10039000BCF1010F1CD0BCF1020F31D11DE0BCF14A
:1003A000110F17D0BCF1120F2AD119E0B8F5881F30
:1003B00019D006DCB8F5803F15D0B8F5801F1FD1E5
:1003C00011E0B8F5001F0ED0B8F5041F18D10AE0EF
:1003D000CB6815E0CB681B1D12E0CB6808330FE03B
:1003E000CB680C330CE08B682BB1012B4FF008036A
:1003F00003D0456104E0042302E0056100E000232E
:10040000FF2A01D8064601E000F104064FEA840500
:1004100001D9A5F12005D6F8008007FA05FC28EAE5
:100420000C0803FA05F548EA0508C6F800804D688F
:10043000ED0062D5374DAE6946F00106AE61AD699B
:1004400024F0030605F001050095334D06EB050C7D
:10045000DCF80850A607360F07FA06F825EA080563
:10046000DFF8B880404503D14FF0000817E044E0C2
:10047000DFF8AC80404502D14FF001080FE0DFF813
:10048000A480404502D14FF0020808E0DFF89880D0
:10049000404502D14FF0030801E04FF0040808FA8C
:1004A00006F848EA0508CCF808804D68D9F80060DD
:1004B000ED034D4601D5164300E096432E604D688E
:1004C000DAF80060AD03554601D5164300E09643C7
:1004D0002E604D68DBF80060ED025D4601D51643E5
:1004E00000E096432E604D68DEF80060AD02754670
:1004F00001D5164300E096432E60641C0D682A4621
:10050000E5407FF431AFBDE8F88F00000004014002
:1005100000001110001002400000014000080140DE
:10052000000C0140001001400014014080680840A8
:1005300000D0012070470AB1016170470904FBE750
:1005400001488068704700000C00002070B504006E
:1005500025D094F83D00002520B984F83C50204671
:1005600000F04EF9242084F83D002068016821F055
:10057000010101602068016841F4004101602068C8
:10058000016821F40041016000F08EFA4D4A616873
:10059000914201D84C4900E04C49884201D20120E7
:1005A00070BD4B492368B0FBF1F15E6826F03F0651
:1005B0000E435E606368934206D94FF496735943C5
:1005C0004FF47A73B1FBF3F12368491C1E6A26F0DD
:1005D0003F06314319626168914210D84900401EBC
:1005E000B0FBF1F2521CC2F30B02042A01D2042028
:1005F00022E0B0FBF1F0401CC0F30B001CE0A2684D
:10060000F2B301EBC10303EB0116431EB3FBF6F398
:100610005B1C43F480431B0549D092B301EBC1023C
:1006200002EB0111401EB0FBF1F0401CC0F30B00C7
:1006300040F4804040F400402168CA694CF6FF73E2
:100640009A431043C861D4E9071001432068026847
:1006500022F0C00211430160D4E903010143206884
:10066000826848F2FF339A4311438160D4E905015F
:1006700008432168CA6822F0FF021043C86001E005
:100680000EE016E02068016841F001010160256478
:10069000202084F83D00256384F83E50002070BD82
:1006A00001EB4106431EB3FBF6F35B1CB3E70120ED
:1006B000C2E701EB4101401EB0FBF1F0401CC0F36A
:1006C0000B00B7E7A086010080841E0000093D00F2
:1006D00040420F002DE9F84F1F4690468A460446D7
:1006E000DDF82890FFF72CFF054694F83D00202800
:1006F0007FD11923012240492046009500F02CFDAE
:10070000002876D194F83C00012872D0012084F8AA
:100710003C0020680168C90703D1016841F001016C
:1007200001602068016821F400610160212084F8E3
:100730003D00102084F83E0000262664C4F8248082
:100740006785608D20852D48E0622B464A465146DC
:10075000204600F08DFC90B92068416980690090C6
:1007600036E02A464946204600F075FD50B1206C1F
:10077000042804D12068016841F40071016001205F
:10078000BDE8F88F606A216800780861606A401CE3
:100790006062618D491E6185218D491E89B2218566
:1007A00022685369DB435B070BD451B100781061B9
:1007B000606A401C6062608D401E6085208D401E16
:1007C00020852A464946204600F0A0FC0028CED1CC
:1007D000208D0028C5D154F83D0B016841F400710B
:1007E0000160202004F81E09E67766770020C7E73D
:1007F000FFE70220C4E70000020010000000FFFF36
:1008000010B586B00021009101910291039100681A
:100810000F4988421AD10F4CA06940F00800A0612E
:10082000A069694600F008000490C02000901220E2
:100830000190032003900848FFF788FDE06940F429
:100840000010E061E06900F40010049006B010BDF3
:100850000054004000100240000C01400248816832
:1008600002781144816070470C000020074810B5E1
:10087000016841F010010160032000F067F80F20CB
:1008800000F006F800F024F8002010BD002002401F
:1008900070B50D4D04464FF47A712878B1FBF0F035
:1008A0000A490968B1FBF0F000F0D4FA48B9102CFD
:1008B00007D200222146501E00F028F800206C606C
:1008C00070BD012070BD00000C0000201800002049
:1008D0000C4808B5816941F001018161816901F02D
:1008E00001010091C16941F08051C161C06900F00E
:1008F000805000900448416821F0E06141F00071AF
:10090000416008BD0010024000000140F0B40E4BF1
:100910001B680C46C3F30223C3F10705042D00D95D
:100920000425191D072901D2002300E0DB1E012642
:1009300006FA05F1491E214099409E40761E164058
:100940003143F0BC00F0BCBD0CED00E0064900F006
:10095000070208684FF6FF03184040EA0220034AE6
:1009600010430860704700000CED00E00000FA053D
:100970002DE9F0470F46050061D0434E306800F086
:100980000700B84209D2306820F0070038433060D1
:10099000306800F00700B84251D128683B4C81070D
:1009A00012D5400703D5606840F4E06060602878A5
:1009B000000703D5606840F4605060606068A96813
:1009C00020F0F000084360602878C00728D06868ED
:1009D000012810D02168022810D0890700292EDABA
:1009E000616821F0030101436160FFF7A9FD8046C2
:1009F00041F288390DE021688903EFE78901EDE7CD
:100A0000FFF79EFDA0EB0801494502D90320BDE890
:100A1000F0876068696800F00C00B0EB810FEFD1DF
:100A2000306800F00700B8420BD9306820F00700AA
:100A300038433060306800F00700B84201D0012030
:100A4000E5E72878400705D56068E96820F4E060AC
:100A5000084360602878000706D56068296920F49B
:100A6000605040EAC100606000F02EF86168084AFA
:100A7000C1F30311515CC84006490860064800688C
:100A8000FFF706FF0020C2E70020024000100240EE
:100A9000B01800081800002010000020014800686D
:100AA00070470000180000200448054900684968A4
:100AB000044AC1F30221515CC8407047180000206D
:100AC00000100240C018000812A185B00FC98DE8BF
:100AD0000F0014A0144A006804905168134801F0F4
:100AE0000C03042B10D0082B0ED1C1F38343C90390
:100AF0001DF803000AD5516804AAC1F34041515CB6
:100B00000A4A5043B0FBF1F005B07047084948432A
:100B1000FAE7000002030405060708090A0B0C0D9A
:100B20000E0F1010010200000010024000127A00A7
:100B300000093D002DE9F84F040070D02078C04D29
:100B4000C00749D06868C0F38100012807D06868F1
:100B5000C0F38100022809D16868C00306D528685F
:100B6000800339D560680028E7D035E06068B0F5CB
:100B7000803F0BD010B1B0F5A02F11D0286820F421
:100B800080302860286820F4802002E0286840F443
:100B900080302860606890B1FFF7D2FC06460AE01A
:100BA000286840F480202860F0E700BFFFF7C8FC09
:100BB000801B642873D828688003F7D50CE0FFF702
:100BC000BFFC064605E000BFFFF7BAFC801B6428A7
:100BD000F0D828688003F7D420789A4E80074FF029
:100BE00001094FF0000839D5686810F00C0F07D0E4
:100BF0006868C0F38100022809D16868C00306D480
:100C00002868800714D52069012808D110E02069E0
:100C1000B0B1C6F80090FFF793FC074605E00AE183
:100C2000FFF78EFCC01B0228C4D828688007F7D5C0
:100C30002868616920F0F80040EAC10028600DE0F2
:100C4000C6F80080FFF77CFC074604E0FFF778FC5D
:100C5000C01B022823D828688007F7D42078000713
:100C60002CD57948A169D9B1C0F80090FFF768FC8C
:100C7000074604E0FFF764FCC01B02280FD8686A2F
:100C80008007F7D571484FF4FA510068B0FBF1F0D6
:100C9000009000BF0098411E0091FAD20EE080E063
:100CA000C0F80080FFF74CFC074604E0FFF748FC63
:100CB000C01B022875D8686A8007F7D420784007DF
:100CC00060D5E8690027C00008D4E86940F080508A
:100CD000E861E869012700F0805000905C480168F5
:100CE000C90513D40168834641F480710160FFF7A0
:100CF00027FC824606E000BFFFF722FCA0EB0A00BB
:100D000064284ED8DBF80000C005F5D5E06801285E
:100D10000AD008B1052813D0286A20F00100286203
:100D2000286A20F0040002E0286A40F001002862EE
:100D3000E06841F2883B98B1FFF702FC82460BE085
:100D4000286A40F004002862EEE700BFFFF7F8FBD6
:100D5000A0EB0A0159455AD8286A8007F6D50CE05D
:100D6000FFF7EEFB824605E0FFF7EAFBA0EB0A0186
:100D700059454CD8286A8007F6D41FB1E86920F09D
:100D80008050E861E06988B36968C1F38101022994
:100D900044D00228C6F8608004D0FFF7D1FB044697
:100DA00038E034E0FFF7CCFB074604E0FFF7C8FB70
:100DB000C01B02282BD828688001F7D4206AB0F520
:100DC000803F05D16868A16820F40030084368605E
:100DD000D4E908010843696821F474110843686084
:100DE000C6F86090FFF7ACFB044606E025E000BFC4
:100DF000FFF7A6FB001B022809D828688001F7D559
:100E00001BE000BFFFF79CFB001B022802D9032058
:100E1000BDE8F88F28688001F4D40EE00128F7D0EF
:100E20006868226A00F48031914204D1616A00F45A
:100E30007010884201D00120EAE70020E8E70000B6
:100E4000001002400000424280044242180000208C
:100E50000070004010B5401EB0F1807F01D301202A
:100E600010BD4FF0E02460610F21601700F028FBF7
:100E70000020A06107202061002010BD70B590F80F
:100E80003C20012A26D0012480F83C40022280F830
:100E90003D2003685A689D6822F070060A68324354
:100EA0005A600D4B02689A4208D0B2F1804F05D0CB
:100EB0000A4B9A4202D00A4B9A4204D1496825F063
:100EC00080031943916080F83D40002180F83C1078
:100ED000084670BD022070BD002C01400004004097
:100EE0000008004010B5040003D094F83D0010B194
:100EF00007E0012010BD002084F83C00204600F0EF
:100F00001FF8022084F83D00211D206800F06CFAD3
:100F1000012084F8460084F83E0084F83F0084F8FD
:100F2000400084F8410084F8420084F8430084F8CB
:100F3000440084F8450084F83D00002010BD000006
:100F400008B500680649884208D10648816941F41D
:100F500000618161806900F40060009008BD0000BC
:100F6000002C01400010024070B5044690F83C008F
:100F7000012817D0012584F83C50022084F83D0058
:100F80002068826822F0770222F47F42826008683B
:100F9000502830D00DDC20284DD005DC98B3102827
:100FA0003BD148E0022070BD302844D0402834D1E5
:100FB00039E0602828D0702806D0B0F5805F2CD0AA
:100FC000B0F5005F29D10AE0CB68D1E901212068A2
:100FD00000F040FA2068816841F0770109E0CB68B1
:100FE000D1E90121206800F035FA2068816841F4D8
:100FF0008041816011E0CA684968206800F03CFACD
:101000005021206807E016E0CA684968206800F0AF
:1010100044FA6021206800F027FA84F83D5000204F
:1010200084F83C0070BDCA684968206800F024FA62
:1010300040212068EFE7226801461046EBE7FEE713
:1010400001684A69D24352050FD46FF480624A6145
:10105000002140F8301F202242738173026942F060
:1010600004020261017301207047002070470000F4
:10107000F8B50446C06A1E460D461746082807D034
:10108000012805D010F5803F02D0206B122804D132
:101090002068016841F480710160134600224FF01E
:1010A00001112046009600F057F840B12068006812
:1010B000C00502D54FF4007020640320F8BD2069FC
:1010C000B0F5804F0ED00620216800EAD51040F020
:1010D000F000086133463A460B49204600F070F8AC
:1010E00078B902E005F0FE0000E0E8B2216808618E
:1010F000054933463A46891F204600F061F800282A
:10110000DCD00120F8BD00000800010070B51646D3
:101110000D4604460DE02046FFF792FF08B101207E
:1011200070BD681C05D0FFF70BFA801BA84207D8DA
:1011300035B120684069C0434007ECD4002070BD41
:10114000002044F8300F20216173A073216941F021
:10115000200121612073E2E72DE9F0471E46904609
:101160000D460446C1F30747DDF8209008E0701CE7
:1011700006D0FFF7E5F9A0EB0900B0420FD876B131
:101180002068012F18D0806925EA00000004000CB7
:1011900014D000214145EAD00020BDE8F0870020AE
:1011A00044F8300F20216173A073216941F02001C0
:1011B000216120730120F0E74069E5E70121E9E7BB
:1011C0002DE9F0479A4691460E46044600254FF019
:1011D0002008C1F3074725E020684069C043400567
:1011E00014D42068016841F40071016021686FF433
:1011F00080604861256384F83D8084F83E50206C0F
:1012000040F00400206484F83C501FE0B9F1FF3F37
:1012100008D0FFF795F9A0EB0A0149450CD8B9F1C0
:10122000000F09D02068012F13D0806926EA000042
:101230000004000C0BD0CFE744F8305F84F80D8039
:10124000A573206940F02000206125730120BDE8CE
:10125000F0874069EAE770B516460D4604460DE092
:101260002046FFF7EDFE08B1012070BD681C05D0D7
:10127000FFF766F9801BA84207D835B1206840699E
:10128000C0430006ECD4002070BD002044F8300FAD
:1012900020216173A073216941F020012161207335
:1012A000E2E7000070B586B000241848009401946D
:1012B00002940394816941F020018161816901F008
:1012C00020010491816941F004018161816901F08B
:1012D00004010491816941F00801816180690C4E2B
:1012E00000F008004FF48055049000222946304653
:1012F000FFF721F901200095CDE9010402200390B8
:1013000069463046FFF722F806B070BD0010024073
:10131000000C014010B586B00024174800940194D9
:101320000294039404941349059401604721C0E991
:1013300001144FF6FF71C0E9031444618461FFF7A3
:10134000D1FD08B172B6FEE74FF4805000906946B7
:101350000948FFF709FE08B172B6FEE7049404A934
:1013600005480594FFF78AFD002801D072B6FEE714
:1013700006B010BD002C014070000020FEE7FEE723
:1013800070477047FFF76ABA30B58FB028216846BA
:10139000FEF71AFF14210AA8FEF716FF0121080420
:1013A000CDE900100024029402250491CDE90750F4
:1013B0004FF4E01009906846FFF7BCFB08B172B625
:1013C000FEE70F20CDE90A054FF48060CDE90C401F
:1013D00002210AA80E94FFF7CBFA002801D072B6BA
:1013E000FEE70FB030BD7047F0B50268164B174CE2
:1013F000174D4FF08047984205D0B84203D0A04225
:1014000001D0A84203D122F070064A6832439842C4
:1014100005D0B84203D0A04201D0A84203D122F4A3
:101420004074CA6822434C6922F080022243026061
:101430008A68C2620A688262984201D109690163BE
:1014400001214161F0BD0000002C0140000400407A
:101450000008004010B5846842EA032224F47F4467
:101460000A432243826010BD826822F070020A4360
:1014700042F007018160704710B5036A046A24F0E6
:1014800001040462846924F0F00444EA021423F0A5
:101490000A020A438461026210BD10B5036A23F098
:1014A000100303628369046A23F4704343EA02323F
:1014B00024F0A00343EA01118261016210BDFEE73E
:1014C0000907090E002804DB00F1E02080F8001471
:1014D000704700F00F0000F1E02080F8141D704705
:1014E00010B52820FEF708FF0B4C01212046FFF71E
:1014F0001DF850B95020FEF7FFFE01212046FFF7EE
:1015000015F810B105490120087001212046FFF7A8
:101510000DF80028F9D110BD00080140000000209E
:10152000012805D04031C8B240F0800000F030B84A
:101530008031C8B2FAE710B5332000F029F8322024
:1015400000F026F83220FEF7EFFE282000F020F809
:101550003220FEF7E9FE012000F01AF83220FEF7F3
:10156000E3FE062000F014F83220FEF7DDFE0C202A
:1015700000F00EF83220FEF7D7FE022000F008F847
:101580003220FEF7D1FEBDE810408020AFF300808E
:101590001CB500F0F00141F00C028DF8042041F080
:1015A000080100018DF8051040F00C018DF80610BF
:1015B00040F008008DF8070064200090042301AA81
:1015C0004E210248FFF786F81CBD00001C000020D9
:1015D0001CB500F0F00141F00D028DF8042041F03F
:1015E000090100018DF8051040F00D018DF806107D
:1015F00040F009008DF8070064200090042301AA40
:101600004E210248FFF766F81CBD00001C000020B8
:1016100010B5044602E0641CFFF7DAFF20780028CA
:10162000F9D110BDFFF722F9FFF7AEFEFFF73AFE42
:10163000654864494FF4804201606449416000217B
:101640008160C0E9031241618161C1610162FEF7FD
:101650007DFF08B172B6FEE7FFF75CFEFEF72AFEDB
:10166000FFF769FF00210120FFF75AFF58A0FFF79D
:10167000CFFF00210220FFF753FF58A0FFF7C8FF5C
:101680000122594F160331463846FEF754FF4FF4F6
:10169000FA684046FEF748FEB146544C0A254646D5
:1016A000FEF7F6FDFFF71CFF00F0B8F8607000F0E1
:1016B000B5F8A07000F0B2F8E07000F0AFF820715B
:1016C00000F0ACF8E0806278A17894F804C0531878
:1016D000E1780B44634483423CD161812281002143
:1016E0000120FFF71DFF3AA0FFF792FF6089B0FBD2
:1016F000F5F0B0FBF5F105FB11003030FFF768FFA6
:101700006089B0FBF5F105FB11003030FFF760FF99
:10171000DF20FFF75DFF36A0FFF77AFF00210220F0
:10172000FFF7FEFE2DA0FFF773FF2089B0FBF5F059
:10173000B0FBF5F105FB11003030FFF749FF2089C0
:10174000B0FBF5F105FB11003030FFF741FF2AA097
:10175000FFF75EFF608928282BD9012249463846C9
:10176000FEF7E9FE00210120FFF7DAFE23A0FFF7D4
:101770004FFF00210220FFF7D3FE25A0FFF748FF0F
:101780006089B0FBF5F0B0FBF5F105FB11003030DE
:10179000FFF71EFF6089B0FBF5F105FB110030304B
:1017A000FFF716FFDF20FFF713FF11A0FFF730FF51
:1017B00004E0002249463846FEF7BDFE3046FEF7FB
:1017C000B3FD6DE7005400401C000020A08601001E
:1017D0004E4849455420444F3A000000444F2041B0
:1017E0004D2020203A000000000C014000000020A5
:1017F0004320202000000000250000004E484945FD
:101800005420444F205155412043414F21000000B6
:101810005741524E494E4721212100002DE9F04108
:101820000024144F012601213846FEF77FFE0028D0
:10183000F9D01E20FEF760FD01213846FEF776FE46
:1018400090B1C4F1070106FA01F02843C5B20121A5
:101850003846FEF76BFE0028F9D1641CE4B2082C70
:10186000E1D32846BDE8F081C4F1070006FA00F094
:101870008543ECE7000801401FB5012000900020DF
:101880000190029069460248FEF760FD1FBD00000E
:10189000000801401FB50120009001900220039034
:1018A00069460248FEF752FD1FBD000000080140D6
:1018B0000000000000000000010203040607080900
:1018C0000000000001020304E818000800000020E6
:1018D0001C00000028010008041900081C0000205A
:1018E000FC060000440100080000000000000000A9
:1018F00000000000010000001000000000000000D7
:041900000024F400CB
:04000005080000ED02
:00000001FF
